:020000040800F2
:100000004008002089010008F90A0008CB08000810
:10001000F50A000803040008691700080000000042
:100020000000000000000000000000004D1100086A
:100030002507000800000000FD0F0008B1120008AD
:10004000A3010008A3010008A3010008A301000800
:10005000A3010008A3010008A3010008A3010008F0
:10006000A3010008A3010008A3010008A3010008E0
:10007000A3010008A3010008A3010008A3010008D0
:10008000A3010008A3010008A3010008A3010008C0
:10009000A3010008A3010008A3010008A3010008B0
:1000A000A3010008B9130008A3010008A301000878
:1000B000A3010008A3010008A3010008A301000890
:1000C000A3010008A3010008A3010008A301000880
:1000D000A3010008A3010008A3010008A301000870
:1000E000A3010008A3010008A301000800F002F822
:1000F00000F03AF80AA090E8000C82448344AAF188
:100100000107DA4501D100F02FF8AFF2090EBAE885
:100110000F0013F0010F18BFFB1A43F0010318473B
:100120001833000038330000103A24BF78C878C173
:10013000FAD8520724BF30C830C144BF04680C60ED
:10014000704700000023002400250026103A28BF35
:1001500078C1FBD8520728BF30C148BF0B60704739
:100160001FB51FBD10B510BD00F031F81146FFF7E7
:10017000F7FF01F00BFB00F04FF803B4FFF7F2FFBD
:1001800003BC00F057F800000948804709480047C1
:10019000FEE7FEE7FEE7FEE7FEE7FEE7FEE7FEE737
:1001A000FEE7FEE704480549054A064B7047000094
:1001B00059130008ED00000840020020400800200C
:1001C0004004002040040020704770477047754687
:1001D00000F02CF8AE4605006946534620F00700B3
:1001E000854618B020B5FFF7DDFFBDE820404FF091
:1001F00000064FF000074FF000084FF0000B21F011
:100200000701AC46ACE8C009ACE8C009ACE8C009DD
:10021000ACE8C0098D46704710B50446AFF30080C6
:100220002046BDE81040FFF7A8BF00000048704717
:10023000DC01002001491820ABBEFEE726000200C9
:10024000704721B1826842F00102826003E0826857
:1002500022F001028260704721B1826842F480720C
:10026000826003E0826822F48072826070470146F7
:1002700000208A6802F004020AB1012000E0002098
:100280007047014600208A6802F008020AB1012086
:1002900000E000207047000030B502460020002337
:1002A00050680F4C20400D790C6844EA0524204327
:1002B000506090680B4C2040D1E902542C434D799A
:1002C00044EA450420439060D06A20F470000C7C1E
:1002D000641EE4B2234340EA0350D06230BD000004
:1002E000FFFEF0FFFDF7F1FFF0B504460D460020DC
:1002F0000021092D11DDE068A5F10A0606EB46078D
:10030000072606FA07F18843A5F10A0606EB46061A
:1003100003FA06F10843E0600CE0206905EB4507AD
:10032000072606FA07F1884305EB450603FA06F1AE
:1003300008432061072A0FDA606B561E06EB86071A
:100340001F2606FA07F18843561E06EB860605FAB5
:1003500006F10843606322E00D2A0FDA206BD61FF6
:1003600006EB86071F2606FA07F18843D61F06EB21
:10037000860605FA06F10843206310E0E06AA2F160
:100380000D0606EB86071F2606FA07F18843A2F141
:100390000D0606EB860605FA06F10843E062F0BD9D
:1003A000816841F008018160704721B1826842F4A0
:1003B000A002826003E0826822F4A002826070479B
:1003C000816841F00401816070472DE9F0410646E3
:1003D0000C460027002506E056F82510384602F0A6
:1003E00085F907466D1CA542F6DB204602F01EFB90
:1003F00080464146384602F0E7F907463846BDE8F0
:10040000F08100BFFEE710B54821042000F0AEF9EE
:1004100010BD000004490968016003494968416052
:100420000149896881607047B801002000B591B02A
:100430000121480400F000FE0121042000F00CFE20
:1004400018208DF843000420ADF8400003208DF8FB
:10045000420010A9284800F09FF904208DF84300BD
:100460000820ADF8400003208DF8420010A9224872
:1004700000F092F94FF4E1300C900020ADF83C0010
:100480000C20ADF83A000020ADF83800ADF8360089
:10049000ADF834000CA9194801F0FAF8012108461A
:1004A00000F0BAFD01224021144801F0E7F813489A
:1004B000001D019000200790059011480290002037
:1004C000089080200690002003900C2004902020AB
:1004D000099000200B904FF480500A9001A9094820
:1004E00000F002F90121074800F0F2F80121034869
:1004F00001F0B8F811B000BD000801400044004010
:10050000B80100206C00024010B504210A4800F038
:10051000CEF970B9322000F006F900BF0421064878
:1005200000F0C5F90028F9D0322000F0FCF80020D6
:1005300010BD0120FCE70000000801401FB50121AB
:10054000C80200F089FD1A4800F087FF0020ADF8CE
:100550000A00ADF806000920ADF8080041F61F407A
:10056000ADF8040000208DF80C0001A9104801F03E
:1005700027F8012211460E4800F066FF4FF4A060F4
:1005800000F0F4FA19208DF8000001208DF8030026
:100590008DF801008DF80200684600F0AFFA0121E5
:1005A000034800F039FF0121014800F038FF1FBD6A
:1005B000002C014010B592B004460121042000F047
:1005C0004BFD0121084600F027FD0121480200F003
:1005D00043FD4FF4004000F013FD00208DF847006C
:1005E0000320ADF844008DF8460011A9354800F00D
:1005F000D3F83548069080150C9000200A90079497
:100600004FF480600D9080200B9000200890022015
:10061000099020200E90002010904FF480500F90F1
:1006200006A92A4800F060F8072301220021264885
:100630004C38FFF759FE07230222012122484C388B
:10064000FFF752FE002001904FF46020039000203D
:10065000049002208DF8140001208DF809008DF817
:10066000080001A918484C38FFF716FE012116486A
:100670004C38FFF7F1FD0121144800F029F8012161
:1006800011484C38FFF7DDFD0F484C38FFF788FE66
:1006900000BF0D484C38FFF7F4FD0128F9D00A4897
:1006A0004C38FFF78DFE00BF07484C38FFF7DFFDE1
:1006B0000128F9D0012104484C38FFF776FE12B02A
:1006C00010BD0000000801404C2401400800024019
:1006D00021B1026842F00102026004E002684FF6B4
:1006E000FE731A400260704710B50022026847F698
:1006F000F0739A430C6A8B6823430C6923434C695B
:1007000023438C692343CC6923434C6A23438C6A7B
:1007100023431A430260CB6843600B6883604B68D5
:10072000C36010BD704700B5034603E04FF47A7014
:1007300000F005F8181EA3F10103F7D100BD00EB8E
:10074000C001C9004FF0E0225161002191610521F3
:10075000116100BF4FF0E021096901F480310029E7
:10076000F8D004214FF0E0221161704738B50446FB
:100770000D460121042000F06FFC8DF80350ADF808
:10078000004003208DF802006946024800F004F89A
:1007900038BD0000000801402DE9F0410246002567
:1007A0000026002000230024002791F803C00CF04D
:1007B0000F0591F803C00CF0100CBCF1000F03D032
:1007C00091F802C04CEA050591F800C0BCF1000F99
:1007D00031D0146800202BE04FF0010C0CFA00F32C
:1007E000B1F800C00CEA03069E4220D183004FF00E
:1007F0000F0C0CFA03F7BC4305FA03FC4CEA0404A3
:1008000091F803C0BCF1280F06D14FF0010C0CFA8F
:1008100000FCC2F814C00AE091F803C0BCF1480F14
:1008200005D14FF0010C0CFA00FCC2F810C0401CBE
:100830000828D1D31460B1F800C0BCF1FF0F34DD3B
:10084000546800202EE000F1080C4FF0010808FA6F
:100850000CF3B1F800C00CEA03069E4221D18300DC
:100860004FF00F0C0CFA03F7BC4305FA03FC4CEAFB
:10087000040491F803C0BCF1280F05D100F1080C65
:1008800008FA0CF8C2F8148091F803C0BCF1480FC4
:1008900007D100F1080C4FF0010808FA0CF8C2F873
:1008A0001080401C0828CED35460BDE8F081024679
:1008B000002093680B400BB1012000E0002070473E
:1008C0000AB1016100E04161704700BFFEE700002E
:1008D0002DE9F04F89B08046894692469B4658469E
:1008E00001F0D8FE444A454BCDE9040101F0EAFC91
:1008F00002460B46CDE906010020414901F08AFB82
:1009000004460D463F49D1E902013E4A03C23E4931
:10091000484602F01BF94146069001F0E7FE0790B9
:1009200001F0B8FE374AC2E90201104603C8CDE91A
:1009300006011146D1E90201CDE90401DDE90623F2
:1009400001F0BEFD06460F463048D0E902102F4A9E
:10095000C2E90010504601F09DFE2C4AC2E9020196
:100960002B48D0E902102A4AC2E9001032463B4621
:100970002046294601F0A6FA02460B46CDE90001C1
:100980003046394601F046FBCDE902011F48C168F7
:100990008068CDE90001DDE9022301F093FC3246D5
:1009A0003B46CDE906012046294601F08BFA024676
:1009B0000B46CDE900012046294601F02BFBCDE98D
:1009C0000201134803C8CDE90001DDE9022301F06B
:1009D00079FCCDE90401DDE9062301F073FA0C4A44
:1009E000C2E902011046D0E90221104601F038FAAE
:1009F00009B0BDE8F08F00001F85EB51B81E19400B
:100A00000000F03FF000002000007A44D0000020F9
:100A1000E000002000B591B00121880300F01CFB2C
:100A20000121042000F018FB18208DF843004FF43A
:100A30000070ADF8400003208DF8420010A929484D
:100A4000FFF7AAFE04208DF843000002ADF8400035
:100A500003208DF8420010A92248FFF79DFE4FF4B5
:100A6000E1300C900020ADF83C000C20ADF83A00CD
:100A70000020ADF83800ADF83600ADF834000CA910
:100A8000194800F005FE0121084600F0C5FA0122D0
:100A90004021154800F0F2FD1348001D0190002090
:100AA0000790059011480290002008908020069041
:100AB00000200390012004902020099000200B903A
:100AC0004FF480500A9001A90948FFF70DFE01215B
:100AD0000748FFF7FDFD0121034800F0C3FD11B0F9
:100AE00000BD000000080140003801404000002027
:100AF0005800024000BFFEE77047000070B50021BB
:100B000000230F22C47804B3154C246804F4E06475
:100B1000C4F5E064210AC1F10403CA40447804FA30
:100B200003F184781440214309010E4C0678A15545
:100B3000047804F01F050124AC4005786D11AD0068
:100B400005F1E025C5F8004109E0047804F01F052F
:100B50000124AC40044D0678761145F8264070BD5E
:100B60000CED00E000E400E080E100E00249014318
:100B7000024A1160704700000000FA050CED00E029
:100B800070B500240EE00021204600F0F0F80025AA
:100B900004E0002000F0AFF9681CC5B2802DF8DB3E
:100BA000601CC4B2082CEEDB70BD000008B501214A
:100BB000082000F051FA14208DF8030003208DF86E
:100BC00002004FF48070ADF8000069460A48FFF754
:100BD000E3FD4FF40070ADF8000069460648FFF7EA
:100BE000DBFD012211020448FFF76AFE01225102D7
:100BF0000148FFF765FE08BD000C014070B50546D1
:100C0000002415E08020204100EA05024FF4007125
:100C10000E48FFF755FE012211020C48FFF750FE67
:100C200000224FF480710948FFF74AFE601CC4B2ED
:100C3000082CE7DB012211020448FFF741FE0022E5
:100C40004FF480710148FFF73BFE70BD000C01407E
:100C500010B5012251020A48FFF732FE01221102AB
:100C60000748FFF72DFE00224FF400710448FFF7FC
:100C700027FE00224FF480710148FFF721FE10BDCE
:100C8000000C014010B500224FF400710648FFF738
:100C900017FE012211020448FFF712FE0122510241
:100CA0000148FFF70DFE10BD000C014070B5002497
:100CB00006E0002500E06D1CB5F57A7FFBD3641CCF
:100CC000B4F57A7FF5D3FFF771FFAE2000F003F99A
:100CD000D52000F000F9802000F0FDF8A82000F0F9
:100CE000FAF83F2000F0F7F8D32000F0F4F80020E5
:100CF00000F0F1F8402000F0EEF8A12000F0EBF851
:100D0000C82000F0E8F8DA2000F0E5F8122000F042
:100D1000E2F8812000F0DFF8CF2000F0DCF8D920E5
:100D200000F0D9F8F12000F0D6F8DB2000F0D3F87D
:100D3000302000F0D0F8A42000F0CDF8A62000F07C
:100D4000CAF88D2000F0C7F8142000F0C4F8AF20D6
:100D500000F0C1F8FFF714FF70BD10B50246012086
:100D600000E050430B1EA1F10101FAD110BD70B596
:100D700005460C4645F0B00000F0ADF8102141EA00
:100D8000141000F0A8F804F00F0000F0A4F870BDF3
:100D90002DE9F04105460E461746721ED206110E89
:100DA0006A1E5206100EFFF7E2FF002409E0A7F1C9
:100DB0002001134A02EB0111085D00F09CF8601C51
:100DC000C4B2082CF3DB721ED206110E6A1E012378
:100DD00003EB4202D0B2FFF7CAFF00240BE0A7F1F9
:100DE0002001074A02EB011204F10801505C00F0F7
:100DF00082F8601CC4B2082CF1DBBDE8F081000071
:100E0000462E00082DE9F04780460E4617461D463F
:100E1000002415E0281B411E0A20FFF79EFFB7FBA8
:100E2000F0F00A21B0FBF1F201FB120000F13009F1
:100E30003019C1B24A464046FFF7AAFF601CC4B24F
:100E4000AC42E7DBBDE8F0872DE9F04781468846F4
:100E500015461E46002D06DB2B2241464846FFF76D
:100E600097FF2F4605E02D2241464846FFF790FFA9
:100E70006F42002417E0301B411E0A20FFF76DFF70
:100E8000B7FBF0F00A21B0FBF1F201FB120000F118
:100E9000300A08EB0400401CC1B252464846FFF736
:100EA00077FF601CC4B2B442E5DBBDE8F0872DE9F2
:100EB000F04107460E461546002407E02A5D30192A
:100EC000C1B23846FFF764FF601CC4B2285D002839
:100ED000F4D1BDE8F08110B50446FFF7B9FE7820E3
:100EE000FFF78CFE0020FFF789FE2046FFF786FE05
:100EF000FFF7C8FE10BD10B50446FFF7A9FE782025
:100F0000FFF77CFE4020FFF779FE2046FFF776FED4
:100F1000FFF7B8FE10BD10B5186059609A60002444
:100F2000DC601C615C619C61DC611C625C629C62D7
:100F3000DC621C6310BD000000B589B001210220F5
:100F400000F07AF80121042000F086F818208DF8CE
:100F50002300C020ADF8200003208DF8220008A94E
:100F60001A48FFF719FC1A4800F077FA0020ADF88C
:100F70001A00ADF8160044F61F60ADF818004720BF
:100F8000ADF8140000208DF81C0005A9104800F0F1
:100F900017FB01A800F006FB6020ADF8040000205C
:100FA000ADF80C000120ADF806000020ADF80A00F5
:100FB00001A9074800F058FA01A9054800F0A0FA75
:100FC0000121034800F02BFA09B000BD00080140E0
:100FD0000004004010B504462146024800F0ECFA37
:100FE00010BD00000004004010B504462146024830
:100FF00000F0E4FA10BD000000040040704700005B
:1010000001460020034A506820F4404008435060E5
:10101000704700000010024029B1064A526902439D
:10102000044B5A6104E0034A52698243014B5A61FE
:10103000704700000010024029B1064AD2690243FD
:10104000044BDA6104E0034AD2698243014BDA615E
:10105000704700000010024029B1064A926902431D
:10106000044B9A6104E0034A92698243014B9A61FE
:10107000704700000010024030B50021002200241B
:1010800000232D4D6D6805F00C0121B1042905D018
:10109000082923D105E0294D056022E0274D056090
:1010A0001FE0254D6D6805F47012234D6D6805F441
:1010B0008034022505EB92421CB9214D5543056051
:1010C0000BE01D4D6D6805F400351DB11C4D5543F9
:1010D000056002E0194D5543056002E0174D0560BB
:1010E00000BF00BF144D6D6805F0F0010909154DF2
:1010F0006B5C0568DD4045600F4D6D6805F4E0618F
:10110000090A104D6B5C4568DD4085600A4D6D68CD
:1011100005F46051C90A0B4D6B5C4568DD40C56044
:10112000054D6D6805F44041890B074D6B5CC56842
:10113000B5FBF3F5056130BD0010024000127A00E6
:1011400000093D0000000020100000207047000052
:101150002DE9F04104460A49204601F035FB80465E
:10116000084901F0F3FC0746074901F0BFFA0646BB
:1011700001F03CFC85B22846FFF72CFFBDE8F0816A
:10118000000034430000FA440000FA432DE9F04126
:1011900004460A49204601F017FB8046084901F041
:1011A000D5FC0746074901F0A1FA064601F01EFCEE
:1011B00085B22846FFF718FFBDE8F08100003443F0
:1011C0000000FA440000FA4310B500F001F810BD29
:1011D0000CB50020019000903348006840F4803046
:1011E0003149086000BF3048006800F400300090CA
:1011F0000198401C0190009818B90198B0F5A06FB3
:10120000F1D12948006800F4003010B101200090AD
:1012100001E0002000900098012843D12348006895
:1012200040F01000214908600846006820F00300E3
:1012300008600846006840F0020008601A484068EC
:10124000194948600846406848600846406840F4CC
:10125000806048600846406820F47C10486008467A
:10126000406840F4E81048600846006840F080702C
:10127000086000BF0C48006800F000700028F9D03A
:101280000948406820F00300074948600846406864
:1012900040F00200486000BF0348406800F00C00C6
:1012A0000828F9D10CBD00000010024000200240C7
:1012B0007047000010B5002100200022214B5B6820
:1012C00003F00C0121B1042906D0082928D107E038
:1012D0001D4B1E4C236027E01B4B1C4C236023E05E
:1012E000184B5B6803F47010164B5B6803F4803294
:1012F000022303EB904022B9154B4343134C236068
:101300000DE0104B5B6803F4003323B1104B4343F3
:101310000E4C236003E00C4B43430C4C236003E072
:10132000094B0A4C236000BF00BF064B5B68C3F348
:101330000313084CE15C054B1B68CB40034C236056
:1013400010BD00000010024000127A008C00002046
:1013500000093D009000002010B51348006840F0DF
:1013600001001149086008464068104908400E49CC
:101370004860084600680E4908400B490860084666
:10138000006820F4802008600846406820F4FE00D1
:1013900048604FF41F008860FFF716FF4FF00060B1
:1013A0000449086010BD0000001002400000FFF872
:1013B000FFFFF6FE08ED00E010B50121134800F034
:1013C0003AF8012821D11248D0E90020521C40F1FE
:1013D00000000F49C1E900200846D0E900104FF491
:1013E0007A72514001430CD10A48D0E90010491CDF
:1013F00040F10000074AC2E900100021044A1160D0
:1014000051600121014800F007F810BD002C014097
:101410005000002048000020CA430282704721B1DA
:10142000028842F00102028004E002884FF6FE7357
:101430001A400280704702460020138A0B400BB10D
:10144000012000E0002070471AB183890B4383819B
:1014500002E083898B438381704701894FF6F872DC
:10146000114001817047000070B500240022002364
:10147000058C4FF6FE7635400584028C8388048BFC
:101480004FF68F752C40B51E2C400D882C43751ED1
:101490002A400D892A434D882A43144DA8420BD077
:1014A000134DA84208D0134DA84205D0124DA842B2
:1014B00002D0124DA84213D14FF6F7752A404D893C
:1014C0002A434FF6FB752A408D882A434FF6FF6565
:1014D0002B404FF6FF552B408D892B43CD892B4355
:1014E00083800483CD888586028470BD002C0140F2
:1014F00000340140004001400044014000480140E8
:1015000070B5002400220023058C4FF6EF7635409D
:101510000584028C8388048B48F6FF752C404FF6B7
:10152000FF452C400D884FF6FF7606EA05252C4333
:101530004FF6DF752A400D8906EA05152A434D88C6
:1015400006EA05152A43154DA84202D0144DA842BB
:101550001DD14FF67F752A404D894FF6FF7606EA7A
:1015600005152A434FF6BF752A408D8806EA0515F2
:101570002A434FF6FF352B404FF2FF752B408D89E4
:1015800006EA85052B43CD8906EA85052B43838032
:101590000483CD880587028470BD0000002C0140C3
:1015A000003401400021018041808180C18001819F
:1015B00041818181C1817047818670470187704771
:1015C000002202881D4B98420ED01D4B98420BD032
:1015D000B0F1804F08D01B4B984205D01A4B98426F
:1015E00002D01A4B984204D14FF68F731A404B88A1
:1015F0001A43174B984207D0164B984204D04FF627
:10160000FF431A40CB881A4302808B8883850B885E
:1016100003850A4B98420BD0094B984208D00E4BD9
:10162000984205D00D4B984202D00D4B984201D103
:101630000B7A03860123838270470000002C01404F
:10164000003401400004004000080040000C00404D
:1016500000100040001400400040014000440140E0
:101660000048014021B1828942F40052828104E0A5
:1016700082894DF6FF731A40828170471AB1838ABE
:101680000B43838202E0838A8B438382704700008E
:101690002DE9F04786B005460E460024A24600BF5D
:1016A000A1460027B08900B100BF2F462C8A4CF616
:1016B000FF700440F08804432C82AC894EF6F3108E
:1016C0000440B08831890843718908430443AC81E0
:1016D000AC8A4FF6FF400440B0890443AC8201A8B5
:1016E000FFF7CAFC1F48874202D1DDF810A001E0D5
:1016F000DDF80CA0A88900F4004040B10AEBCA0054
:1017000000EB0A1031684900B0FBF1F807E00AEB82
:10171000CA0000EB0A1031688900B0FBF1F86420C0
:10172000B8FBF0F004012009642101FB1089A889AD
:1017300000F4004040B1322000EBC900B0FBF1F0F2
:1017400000F00700044308E0322000EB0910642198
:10175000B0FBF1F000F00F0004432C8106B0BDE8AF
:10176000F08700000038014000BFFEE710B50346D7
:10177000002005E0441C53F8244043F82040401C5E
:101780008842F7DB441E43F8242010BD86B0FFF7E3
:1017900091FDFEF7D3FEFFF7CFFBFFF787FAF8487E
:1017A000FFF7D6FCF748FFF7F1FCFEF73FFEFFF727
:1017B00031F9F54BF54AF6491046FFF7ACFBF54B0E
:1017C000F24AF549F548FFF7A6FBF548FEF7F2FEA9
:1017D000FEF719FEFFF7D4F9F2A201210846FFF740
:1017E00066FBF3A201210320FFF761FBB1E2FEF7E4
:1017F0008BFE50B9F1480078012803D10020EF4951
:10180000087002E00120ED490870EC4800780028DB
:1018100078D0E349088801F051F98346E84900F09F
:10182000D3FF824600F036FF4FF06632E54BCDE93C
:10183000000100F047FD4FF06632E34BCDE90201B5
:1018400000F03EFE4FF06632DE4BCDE9040100F0C1
:10185000E1FB07460022DD4B00F034FD054600F0B9
:10186000FFFADB4908604FF07E51D948006801F06B
:1018700039F901D2012500E00025D649D448006895
:1018800001F030FA01D2012000E0002005403DB90E
:10189000CF480168D048006800F028FFCE490860B2
:1018A000BF49488801F00AF9C549009000F08CFF53
:1018B000019000F0EFFE82464FF06632C14B00F01F
:1018C00001FD4FF06632C04BCDE9020100F0F8FD9A
:1018D00007464FF06632BB4B00F09CFB0022BB4B2F
:1018E000CDE9040100F0EEFC054600F0B9FAB84974
:1018F00008604FF07E51B648006801F0F3F802D25C
:10190000012501E035E00025B249B148006801F049
:10191000E9F901D2012000E0002005403DB9AC48C2
:101920000168AE48006800F0E1FEAC490860AB48D1
:10193000006801F03FF8054604232A4601210220F1
:10194000FFF782FAA448006801F034F80546042342
:101950002A4601211846FFF777FAA0480068FFF7EA
:10196000F7FB9D480068FFF711FC6420FEF7DBFEE3
:10197000EFE19B48FEF74EFD99490868954900F054
:10198000E5FF0BD096494868964900F0DFFF05D087
:1019900093498868934900F0D9FF03D10020924908
:1019A00008600FE091480088401C90490880084674
:1019B0000088B0F5487F05DD01208B4908600020D4
:1019C0008A4908808A48007887490968884202D095
:1019D0000120884908708448007885490870854846
:1019E0000078D0B1002413E04FF000090BE0002094
:1019F00004EB8401804A02EBC10141F8290009F19E
:101A0000010000F0FF09B9F1050FF0DB601CC4B262
:101A1000022CE9DB00207749087073480068C8B1E0
:101A20006F4908684FF0404100F090FF0BD06C49BF
:101A30004868724900F08AFF05D0694988686F4993
:101A400000F084FF03D100206D49087002E00120FE
:101A50006B4908706448006800287DD068480078A9
:101A60000028FAD000206749086067484068664946
:101A700008605B48406848606448406863490860A3
:101A8000574880684860604A1168506801F066F9FC
:101A900006465F4903C900F0E1FF07465D4903C9F7
:101AA00000F0DCFF80465C4B32463946FEF710FF03
:101AB00005464B484168284600F018FE48494860F2
:101AC000524A1168506801F049F90646504903C965
:101AD00000F0C4FF07464F4903C900F0BFFF80462E
:101AE0004D4B32463946FEF7F3FE05463C488168C9
:101AF000284600F0FBFD3A4988600846406847499F
:101B00000860374880684649086008460A2102682C
:101B10003948FFF72BFE41480A2102683648283031
:101B2000FFF724FE3F48006848B30A213248FEF719
:101B30004CFC80F00046144A0021304600F020F9A9
:101B4000054626480168284600F0D0FD2349086074
:101B50000A212948283000E0C5E0FEF736FC80F075
:101B600000460C4A0021304600F00AF905461A48A2
:101B70000168284601F0E7F8174908606DE053E076
:101B8000000082420000B44200010020CDCCCC3DD8
:101B90006F12833A34010020A69B443BCDCC4C3ECF
:101BA0008400002050616E5F416E676C653A0000F2
:101BB00054696C745F416E676C653A002D000020BB
:101BC00000F07F4566660A406666FA3F00001440F2
:101BD00088000020000080BF34000020300000207A
:101BE000D0010020000035C320000020700000203C
:101BF000240000202C00002068010020000048C3C1
:101C0000780000201C000020580000206000002008
:101C10004800002050000020CDCC4C3D3C0000206E
:101C2000380000202800002005214A48FEF7CDFB9F
:101C3000054649480168284600F058FD46490860B5
:101C4000052144482830FEF7C0FB0546434801689B
:101C5000284601F078F84149086041493E4800684B
:101C600001F040F802D23E483B4908603D493A48FD
:101C7000006800F037FF02D23A4837490860394916
:101C80003648006800F02EFF02D23648334908601B
:101C900035493248006801F025F802D232482F4910
:101CA00008602D48006800F085FE054604232A469A
:101CB00001210220FFF7C8F82848006800F07AFEEA
:101CC000054604232A4601211846FFF7BDF822489D
:101CD0000068FFF73DFA21480068FFF757FA322005
:101CE000FEF721FD35E021480068401C1F490860CF
:101CF0000846006842F6E06188422AD100201B496C
:101D000008601B4908601B4908601B4812490860AD
:101D10001A48124908601048006800F067FE05463E
:101D200004232A4601210220FFF76CF80B480068C3
:101D300000F05CFE054604232A4601211846FFF701
:101D400061F805480068FFF703FA04480068FFF7E8
:101D50001DFA4CE56801002030000020340000200E
:101D6000000016430000F041000034431C00002036
:101D7000380000203C000020000082420000B442F5
:101D80002DE9F04105460E4614463146284600F03E
:101D9000DAFFA061A169206800F0D8FEE060A169C7
:101DA000606800F0D3FE0746216900F09FFC2061C7
:101DB000D4E9060100F0D2FF0746A16800F0C6FE94
:101DC0006061D4E9030100F091FC0746616900F00D
:101DD0008DFC2063A069E0611C49206B00F082FF4C
:101DE0000ED21B480068401C19490860084600686C
:101DF000282802DA1548206302E000201449086010
:101E00001449206B00F06EFE0ED211480068401C91
:101E10000F49086008460068282802DA0D48206348
:101E200002E000200A4908600B49206B00F05AFFCD
:101E300001D2002020630949206B00F053FE01D23B
:101E400000202063206BBDE8F081000000002041ED
:101E500014000020000020C100004041000020C20A
:101E600021F00042A2F16052B2F5801F01F0004360
:101E700028BFD2F17F6C0BD95FEA001C43EAC20293
:101E800042EB507018BF704728BF20F00100704728
:101E9000B2F5801FBCBF184670474FEA410C1CF5D5
:101EA000001F02D2084600F018BF70B500F0B4FA67
:101EB00000000089FFF7F6BF4FF00040A0F580005A
:101EC0007047000010B591EA030F48BF83F000434C
:101ED00000F1FE82841A71EB030C05D2121943EB58
:101EE0000C03001B61EB0C01DFF824E14FEA1154F5
:101EF000A4EB135C1EEA430F18BF9EEA445F73D045
:101F000023EA0E03DCF1200E21EA045143F480138E
:101F100032D322FA0CFE10EB0E0023FA0CFE41EB3A
:101F20000E01CCF1200E03FA0EFE10EB0E0051F163
:101F30000001B1F5801FCCF1200E32D201EB04512B
:101F400012FA0EF2BDE8104058BF7047401C38BF6F
:101F50005FEA420218BF7047002814BF20F001005A
:101F600041F100014FEA410313F5001F38BF7047EC
:101F7000A1F1C04100F09EBA012A43EB0302ACF18B
:101F8000200CDCF11F0E32BF4FF0000E23FA0CF3D1
:101F900010EB030041EB0451B4EB115FD0D0A1EB87
:101FA000045101F5801149085FEA300001EB04514A
:101FB0000ED350F1000038BF12FA0EFE08D1BDE872
:101FC0001040C9E7401C38BF5FEA4202CAD1C3E7EC
:101FD000BDE810404FEA410313F5001F38BF7047BA
:101FE000A1F1C04100F066BA9EEA445F08D011EA50
:101FF0005E0FBDE8104004BF01F0004100207047B3
:10200000BDE8104070B500F007FA00BF64FBBE3EAB
:102010000000E0FF2DE9C04130B4DFF8A0C23CEA87
:10202000111418BF3CEA131400F0EC8081EA030598
:102030001CEA111444EAD57418BF1CEA131500F009
:10204000C780A4EB05044FF0004545EAC12145EAED
:10205000C32341EA505143EA525304F17F74994239
:1020600004F500344FEAC0204FEAC22208BF904274
:1020700000F09C804FEA13650FF24016765D4FEA40
:10208000134506FB05F7C7F1807706FB07F74FEA14
:10209000D737A7FB03687642C8F58038A7FB06CE82
:1020A00038BFA8F1010807FB08E64FF0000EA6FBB9
:1020B000028CE6FB03CEDCF1000CCEF1004E38BF03
:1020C000AEF1010EA6FB0C584FF000074FF00005D3
:1020D000E6FB0E87A1FB08C6A0FB07CE16EB0E069B
:1020E00045F10005E1FB076515F1E04E7EBFA4F563
:1020F00080345FEA46066D4116F1800745F1000520
:102100004FEA17274FEA066647EA0567A6F1DE465B
:10211000B6F1805F4FEA15251FD9384624F0010C2F
:1021200005EBC471BCF1FE6F01EB0C1102D8F0BCE1
:10213000BDE8008124425CBF01F5801E9EEAC47F99
:1021400002D4F0BCBDE80081244238D4F0BCA1F137
:10215000C041BDE8004100F0ADB94FEAD22242EAE9
:1021600043524FEAD323A7FB02864FEAD02040EA2E
:10217000415007FB03661EEA0E0F4FEAD12105FB13
:10218000026658BFA6EB0056B6EB00564FEA520E59
:102190004EEAC37E18EB0E0E56EB530EBDD518EB70
:1021A00002085E417F1C55F10005B6E74FF480152B
:1021B0004FF000074FF000064FF00008ADE7F0BC0D
:1021C0004FF0000001F1C04101F00041BDE8008185
:1021D00011EA0C1F0CEA131500D00CE013EA0C1FD7
:1021E00000F025804FF00000F0BC81EA030101F00F
:1021F0000041BDE80081F0BCBDE8004181EA030177
:1022000000F058B9F0BCBDE8004170B500F004F929
:10221000097EFC3E00F007B881EA03014FF00000A0
:1022200001F00041704781EA030100F043B9F0BCBE
:10223000BDE800414FF0000021497047FFFDFBF968
:10224000F7F5F4F2F0EEEDEBE9E8E6E4E3E1E0DEE9
:10225000DDDBDAD8D7D5D4D3D1D0CFCDCCCBCAC85B
:10226000C7C6C5C4C2C1C0BFBEBDBCBBBAB9B8B782
:10227000B6B5B4B3B2B1B0AFAEADACABAAA9A8A875
:10228000A7A6A5A4A3A3A2A1A09F9F9E9D9C9C9B43
:102290009A999998979796959594939392919190EE
:1022A0008F8F8E8E8D8C8C8B8B8A8989888887877F
:1022B0008685858484838382828181800000FF07F4
:1022C0000000F87FDFF848C170B51CEA111E1EBF80
:1022D0001CEA13159EEA0C0F95EA0C0F00F06F80B4
:1022E00081EA030423EA4C134EEAD47E21EA4C111E
:1022F00041F4801143F48013AE44A1FB024CA0FBD7
:102300000365AEF17F7E361955EB0C05A1FB034C3E
:102310004CF10003A0FB021C16EB0C06654153F1C7
:102320000003094218BF46F0010613F4007F0BD1E9
:102330004FEA03314FEA0530340341EA155140EAD0
:1023400016506FF003020AE04FEAC3214FEAC5209E
:10235000F40241EA555140EA56506FF0020202EB96
:102360002E4201EB025585EACE710AD05FEA440C99
:1023700018BF24F0004450F1000041F1000120EAB0
:10238000D47040F2FE7C624500D270BDA84214BFFA
:102390004FF080444FF04044002E08BF0024BEF1AF
:1023A000806FA8BFA1F1C041BDE8704080F282807B
:1023B0004FF0000001F1C04101F0004170479EEA7A
:1023C0000C0F0CEA131518BF95EA0C0F06D04FF04E
:1023D000000081EA030E0EF0004170BD00F01CF811
:1023E0008900013E00F007B800F009B84FEA430C3D
:1023F0005FEA5C5C08D081EA030100F05BB84FEA59
:10240000410C5FEA5C5CF6D14FF000000149704777
:102410000000FF070000F87F0EF1020E2EF0030E01
:102420005EF8046B364205D4012A43EB030515F52B
:10243000001F12D8012841EB010C1CF5001F0CD81D
:102440000ED14FEAD17C15F5001F0CEB4C0C0CF1B2
:10245000020C08BF4CEBD37C04E04FF0080C01E009
:102460004FEAD37C0CEB4C0526FA05F606F007067E
:10247000B6F1040C06D20EEB860CBDE870404CF0B1
:10248000010C6047DFE80CF0090B02024FF000413D
:102490004FF00000A1F5002170BD1946104601283B
:1024A00051EB010418BFD4F5001484BF002001F0E3
:1024B000004170BD0808A0F500114FEA31017047D6
:1024C00010B591EA030F48BF83F000433FF502AD1A
:1024D000841A71EB030C07D212198CF0004C43EBF9
:1024E0000C03001B61EB0C01DFF8A4E14FEA11546F
:1024F000A4EB135C1EEA430F18BF9EEA445F00F092
:10250000B08023EA6E03524221EA0451C3EB6E030A
:1025100038BF5B1EDCF1200E25D322FA0CFE10EB37
:102520000E0043FA0CFE41EB0E01CCF1200E03FA33
:102530000EFE10EB0E0051F10001CCF1200E29D45B
:1025400012FA0EF201EB0451BDE8104058BF70477B
:10255000401C1CBFB2F1004F704700280CBF491C43
:1025600020F00100704712EB020E43EB030218BF8C
:102570004FF0010E4EEA4202ACF1200CDCF11E0ECF
:1025800054D943FA0CFE10EB0E0051F1FF31CCF19F
:102590001E0ED5D50EF1010E12FA0EFE404141EB92
:1025A000010101EB445C5FEA5C5C10D910EBDE706A
:1025B00001EB045138BFBEF1004FBDE8104018BF19
:1025C000704700280CBF491C20F00100704730D232
:1025D0004FEAD42C11F5001124F400641BD0B1FA99
:1025E00081F20B3AA41AA41ED2F12003914030FAD2
:1025F00003F31943904001EBCC71002C01EB045123
:10260000BDE81040A8BF704701F1C0414FF0000085
:1026100001F000417047B0FA80F310FA03F100D1E5
:1026200010BDE41A173C4805C90AE4E701EB045160
:1026300010BD491001EB0451BDE810404FEA3000D5
:1026400002E04FF0000170474A0008BF0042F8D096
:10265000B2F5001F28BF704701F000414FF00000A5
:1026600070479EEA445F07D011EA5E0FBDE8104054
:1026700004BF002100207047BDE8104070B5FFF78F
:10268000CBFE00BF40DFF63E83F0004110467047AE
:102690000000E0FF43004FEAD30C4FEA3C0C4340FC
:1026A0001FBF40070CF1605113F0FE4F70471CF044
:1026B000006F03D100200CF0004170470CF0004384
:1026C00043EA507010B540EACC0000F0C0FA00BFF9
:1026D000000000924FEA0001FFF7ECBE4FF000410E
:1026E0004FF00000A1F500217047000090EA010FB3
:1026F00048BF81F0004100F13883421A3CBF801A84
:1027000089184FEAD0524FF07F4C1CEA410FA2EBE0
:10271000D15318BF9CEA026F00F03B804FF0004C91
:102720004CEA00204CEA012121FA03FC10EB0C0CCE
:102730001ED202F1FF325FEA1C2040EBC25038BFCC
:1027400070471CF07F0F4FEA400C18BFBCF17F4F61
:1027500038BF7047C3F12003994008BF20F0010043
:10276000BCF17F4F38BF7047A0F1C04000F0B5BA50
:102770004FEA3C00000A40EBC25028BF1CF0FF0F9C
:102780004FEA400CE6D018BFBCF17F4F38BF70470E
:10279000EAE79CEA026F05D010EA5C0F08BF00F080
:1027A0000040704710B500F052FA00BF64FBBE3E17
:1027B000401058BFC0F14040491058BFC1F14041DE
:1027C0008142EFF3008070474FF47F0C1CEAD01277
:1027D0001EBF1CEAD11392EA0C0F93EA0C0F00F013
:1027E000858090EA010F48BF42F4807240F4000CEB
:1027F00041F400002CF07F4120F07F4000B5814281
:10280000A2EB03020FF2081CACEB504EC0F100002B
:102810009EF800E04FEA4E0E00FB0EFC38BF490068
:102820004FEA2C1C02F5FA020CFB0EF34FEACE1E07
:102830004FEA112C4FEAC1210EEB635E42EB2242BC
:102840000EFB0CFC4FEA1C5300FB03114FEA112C4A
:102850004FEA01310EFB0CFC4FEADC4C00FB0C1183
:10286000C14228BF09184CEB03335DF804EB10EBB1
:10287000410143EBC250B2F57C0F38BF704729D5F8
:1028800012F0F00F1CBF00F1C04000F00040704794
:10289000008182838485868788898B8C8D8E8F9139
:1028A0009293959697999A9C9D9FA0A2A3A5A7A85D
:1028B000AAACAEB0B2B3B5B7B9BCBEC0C2C5C7C989
:1028C000CCCED1D4D7D9DCDFE2E6E9ECF0F3F7FAED
:1028D000FE0000004FEA400C0CF1807CBCF17E4F02
:1028E00028BF7047B0F1C04000F0F7B990EA010F7F
:1028F0000CEAD11348BF42F48072624538BF634589
:1029000007D213F47F0F16D080EA010000F00040D8
:10291000704710B500F09BF9097EFC3E00F005B849
:1029200080EA010000F00040704780EA010000F0FA
:10293000004000F0D2B912F47F0F04BF0248704784
:1029400080EA010000F0C9B90000C07F50EA010C24
:1029500000F113801CF5000F58BFBCF5000F01D427
:102960008842704707D710F5000F58BF11F5000FC8
:1029700015D488427047894270471CF5000F04D572
:10298000BCF5000FF7D5814270474FF0807C1CEBFF
:10299000400F38BF1CEB410F01D28142704710B588
:1029A00000F055F9922449004FF000504FF080514B
:1029B000FFF7FEBE41000B0ED3F19E0208D950F482
:1029C00000034FEA032323FA02F048BF4042704756
:1029D00010B500F03CF900BF4992248000207047F8
:1029E0006FF0004282EA200070470000C10DD1F173
:1029F0009E0206DB4FEA002343F0004323FA02F075
:102A00007047004207D54FEA4001B1F1FE4F02D2B4
:102A10004FF00000704710B500F019F9499224807A
:102A2000002070476FEA20007047000010F000415E
:102A300048BF4042B0FA80F310FA03F2C3F19D039D
:102A40000BD051EAC35101EB1220530638BF704737
:102A500000F1010008BF20F0010070474FF07E52E6
:102A600009E011F0004204D54042C1F1000138BF35
:102A7000491E42F07E520B0002F1706212BF202309
:102A80005FEA00017047B1FA81FCA3EB0C0301FA85
:102A90000CF120FA03FC02EBC352C3F1200341EA1C
:102AA0000C0110FA03FC5CEA416C42EB112018BFE8
:102AB0005FF0806C28BF20F001007047B0FA80F30F
:102AC00010FA03F2C3F19D030AD0D90501EB1220DD
:102AD000530638BF704700F1010008BF20F0010025
:102AE0007047000050EA010C00F113801CF5000F44
:102AF00058BFBCF5000F01D48842704707D710F5C6
:102B0000000F58BF11F5000F15D488427047894255
:102B100070471CF5000F04D5BCF5000FF7D58142B6
:102B200070474FF0807C1CEB400F38BF1CEB410F0F
:102B300001D28142704710B500F089F89224490013
:102B40004FF000504FF08051FFF732BE4FF47F0C32
:102B50001CEAD0121EBF1CEAD11392EA0C0F93EAB2
:102B60000C0F00F0478090EA010F48BF42F48072DA
:102B70004FF0004C4CEA00204CEA012102EB03022A
:102B8000A0FB0113A2F50002002918BF43F00103C6
:102B90005B0028BF4FEA330342EB22425FEA132C6B
:102BA0004CEBC2502EBFBCEB436FB2F57C0F7047AD
:102BB0004FEA036CBCF1004F08BF20F00100B2F5F2
:102BC0007C0F38BF70470BD582F0FF0212F5803FB3
:102BD000C8BF704700F1C040D8BF00F00040704748
:102BE00000F5000C5FEA4C0C48BF7047B0F1C040E4
:102BF00000F073B890EA010F0CEAD11348BF42F419
:102C00008072624538BF634504D280EA010000F05B
:102C10000040704710B500F01AF800BF8900013E6F
:102C200000F007B800F009B85FEA410C5FEA1C6CDD
:102C300008D080EA010000F050B85FEA400C5FEA7B
:102C40001C6CF6D14FF00040A0F5800070470EF1EB
:102C5000020E2EF0030E5EF8044B244204D44FEA19
:102C60004102B2F17F4F11D84FEA4003B3F17F4FD9
:102C70000CD80ED14FEAD07CB2F17F4F0CEB4C0C4C
:102C80000CF1020C08BF4CEBD17C04E04FF0080CB7
:102C900001E04FEAD17C0CEB4C0324FA03F404F07E
:102CA0000704B4F1040C06D20EEB840CBDE810400E
:102CB0004CF0010C6047DFE80CF0070802024FF00F
:102CC0000040A0F5800010BD0846420018BFD2F1B8
:102CD000807288BF00F0004010BDFF2141EAD05053
:102CE000C005704751EA000C00F113801CF5000F7D
:102CF00058BFBCF5000F01D48142704707D711F5CA
:102D0000000F58BF10F5000F15D48142704789425B
:102D100070471CF5000F04D5BCF5000FF7D58842AD
:102D200070474FF0807C1CEB410F38BF1CEB400F0D
:102D300001D28842704780EA010081EA000180EAFE
:102D40000100FFF7F8BE80F0004090EA010F7FF528
:102D5000D4AC81F0004100F008B8000090EA010F07
:102D600048BF81F000413FF5C8AC421A04D882F058
:102D70000042A0EB020011444FEAD0524FF07F4CCA
:102D80001CEA410FA2EBD15318BF9CEA026F4AD054
:102D90004FF0004C4CEA00204CEA012121FA03FCE0
:102DA000B0EB0C0C0FD412F0FE0F36D05FEA4C00E3
:102DB0001DD5001240EBC25038BF70471CF03F0FCA
:102DC00018BF70470BE0A2F101025FEA1C2040EB44
:102DD000C25038BF70471CF07F0F18BF7047C3F157
:102DE0002003994014BF401E20F001007047800866
:102DF0004FEA122308BF7047B0FA80FCA2EB0C0226
:102E0000CCF1280C60FA0CF093EA122F04BF00EB0F
:102E1000C25070474FEAC3707047130A5FEADC1074
:102E200008BF7047F6E79CEA026F04D010EA5C0F17
:102E300008BF0020704710B5FFF709FF40DFF63EDE
:102E400081F000407047000000000000000000001A
:102E5000000000000000000000F80000000000007A
:102E600000333000000000100C06100C06000000BB
:102E700000000000000040C07840C0784000043FDF
:102E800004043F040400007088FC083000000018AF
:102E900020FF211E0000F008F000E01800000021D3
:102EA0001C031E211E0000F00888700000001E2177
:102EB00023241927211010160E0000000000000026
:102EC000000000000000000000E018040200000004
:102ED00000071820400000020418E0000000004035
:102EE000201807000000404080F0804040000202AF
:102EF000010F01020200000000F0000000000101CB
:102F0000011F01010100000000000000000080B06E
:102F10007000000000000000000000000000000140
:102F2000010101010101000000000000000000306B
:102F30003000000000000000000080601804006005
:102F400018060100000000E010080810E000000F63
:102F5000102020100F00001010F8000000000020CA
:102F6000203F202000000070080808887000003012
:102F700028242221300000300888884830000018BA
:102F8000202020110E000000C02010F800000007D3
:102F90000424243F240000F8088888080800001949
:102FA000212020110E0000E0108888180000000F7A
:102FB000112020110E0000380808C8380800000051
:102FC000003F000000000070880808887000001CA6
:102FD000222121221C0000E010080810E00000005F
:102FE000312222110F00000000C0C00000000000CC
:102FF00000303000000000000080000000000000F1
:1030000080600000000000008040201008000001E7
:1030100002040810200040404040404040000404AA
:103020000404040404000008102040800000002074
:10303000100804020100007048080808F0000000B1
:10304000003036010000C030C828E810E000071842
:10305000272423140B000000C038E0000000203CAF
:1030600023020227382008F8888888700000203F53
:10307000202020110E00C03008080808380007186A
:1030800020202010080008F808080810E000203F61
:10309000202020100F0008F88888E8081000203F42
:1030A00020202320180008F88888E8081000203F16
:1030B000200003000000C03008080838000007188E
:1030C0002020221E020008F808000008F808203F0F
:1030D000210101213F20000808F808080000002015
:1030E000203F2020000000000808F8080800C080E9
:1030F00080807F00000008F888C028180800203F62
:1031000020012638200008F8080000000000203FB9
:1031100020202020300008F8F800F8F80800203FB0
:10312000003F003F200008F830C00008F808203FAA
:10313000200007183F00E01008080810E0000F10FA
:10314000202020100F0008F808080808F000203F91
:10315000210101010000E01008080810E0000F182C
:10316000242438504F0008F8888888887000203F51
:103170002000030C30200070880808083800003850
:10318000202121221C00180808F808081800000057
:10319000203F2000000008F808000008F808001F81
:1031A000202020201F000878880000C83808000070
:1031B00007380E010000F80800F80008F800033C8A
:1031C0000700073C03000818688080681808203052
:1031D0002C03032C30200838C800C8380800000031
:1031E000203F2000000010080808C83808002038D8
:1031F000262120201800000000FE0202020000002C
:10320000007F40404000000C30C000000000000083
:1032100000010638C00000020202FE00000000406B
:1032200040407F0000000000040202020400000091
:10323000000000000000000000000000000080808E
:103240008080808080800002020400000000000076
:103250000000000000000000808080800000001955
:10326000242222223F2008F8008080000000003F36
:10327000112020110E000000008080800000000E50
:10328000112020201100000000808088F800000E2E
:10329000112020103F200000808080800000001F4F
:1032A000222222221300008080F0888888180020C3
:1032B000203F202000000000808080808000006B84
:1032C00094949493600008F8008080800000203F70
:1032D000210000203F20008098980000000000207E
:1032E000203F20200000000000809898000000C0CF
:1032F0008080807F000008F8000080808000203FF0
:1033000024022D302000000808F8000000000020F2
:10331000203F202000008080808080808000203F2F
:1033200020003F20003F8080008080800000203F00
:10333000210000203F200000808080800000001FCE
:10334000202020201F00808000808000000080FF5F
:10335000A12020110E000000008080808000000E5F
:10336000112020A0FF8080808000808080002020AD
:103370003F21200001000000808080808000003319
:10338000242424241900008080E0808000000000B4
:10339000001F202000008080000000808000001FAF
:1033A000202020103F20808080000080808000014D
:1033B0000E300806010080800080008080800F3081
:1033C0000C030C300F000080800080808000002003
:1033D000312E0E312000808080000080808080812E
:1033E0008E7018060100008080808080800000219F
:1033F000302C2221300000000000807C02020000FE
:103400000000003F404000000000FF0000000000FE
:103410000000FF0000000002027C8000000000406D
:10342000403F000000000006010102020404000009
:1034300000000000000000005834000800000020D8
:10344000A000000028010008F8340008A0000020B7
:10345000A00700004401000800000000010203046E
:103460000102030406070809020406080000000020
:10347000000000000000000000000000000000004C
:103480000100000000010000000082420000B44280
:10349000000000000000000000000000000000002C
:1034A000000000000000000000000000000000001C
:1034B000000000000000000000000000000000000C
:1034C00000000000000000000000000000000000FC
:1034D00000000000000000000000000000000000EC
:1034E0000000000000A24A040000000000000000EC
:0834F0000102030406070809AC
:04000005080000ED02
:00000001FF
